:020000040800F2
:1000000000000120590E0008A50E0008A50E0008EA
:10001000A50E0008A50E0008A50E000800000000AF
:10002000000000000000000000000000B57C000897
:10003000A50E000800000000537D0008AB7D0008FD
:10004000A50E0008A50E0008A50E0008A50E0008C4
:10005000A50E0008A50E0008A50E0008A50E0008B4
:10006000A50E0008A50E0008A50E0008A50E0008A4
:10007000A50E0008A50E0008A50E0008A50E000894
:10008000A50E0008A50E0008A50E0008A50E000884
:10009000A50E0008A50E0008A50E0008A50E000874
:1000A000A50E0008A50E0008A50E0008A50E000864
:1000B000A50E0008A50E0008A50E0008A50E000854
:1000C000A50E0008A50E0008A50E0008A50E000844
:1000D000A50E0008A50E0008A50E0008A50E000834
:1000E000A50E0008A50E0008A50E0008A50E000824
:1000F000A50E0008A50E0008A50E0008A50E000814
:10010000A50E00080000000000000000A50E000879
:10011000A50E0008A50E0008A50E0008A50E0008F3
:10012000A50E0008A50E0008A50E0008A50E0008E3
:10013000A50E0008A50E0008000000000000000049
:10014000A50E0008A50E0008A50E0008000000007E
:10015000000000000000000000000000000000009F
:10016000A50E0008A50E0008A50E0008A50E0008A3
:10017000A50E0008A50E0008A50E0008A50E000893
:10018000A50E0008A50E00080000000000000000F9
:10019000A50E000810B5054C237833B9044B13B1F4
:1001A0000448AFF300800123237010BD0803002032
:1001B00000000000C40D0108084B10B51BB1084930
:1001C0000848AFF300800848036803B910BD074B27
:1001D000002BFBD0BDE81040184700BF0000000016
:1001E0000C030020C40D01080403002000000000DF
:1001F000154B002B08BF134B9D46A3F5803A0021F9
:100200008B460F461348144A121A09F007FC0F4B8D
:10021000002B00D098470E4B002B00D098470020B1
:10022000002104000D000D48002802D00C4808F001
:10023000E8FE09F0EDF92000290007F0D9FC08F0EC
:10024000FFFE00BF000008000000012000000000C9
:100250000D7F000808030020141F002003900008F1
:1002600001940008F0B5FF23084F094E0A441D46CB
:10027000914206D011F8014B5C403B5D6B40355D0F
:10028000F6E74370002305708370F0BDB0FC0008F2
:10029000B0FB00082DE9F043079C1CB91460204610
:1002A000BDE8F0830325B4FBF5F505EB4507BC423B
:1002B00018BF0135B5F1804F03D34FF0FF33136002
:1002C00004E0AD0001358D4204D915606FF02900BE
:1002D000BDE8F083DFF8C4C006460025BD423146C4
:1002E0009E4606F1040603F1030326D213F803EC3D
:1002F00013F8021C13F8018C4FEAAE094FEA0E1EE8
:100300001CF8099006F8049C0EF0300E0CEB111945
:10031000890019F80EE006F803EC01F03C010CEB43
:10032000981E08F03F081EF8011006F8021C1CF881
:10033000081006F8011C0335D0E7A54227D29EF825
:100340000060164F0135AC4288BF9EF801304FEA7D
:10035000A60E98BF002317F80EE081F800E0AC422B
:1003600007EB131E84BF9B0003F03C034FEA061605
:1003700006F0300601F1030488BFFB5C1EF806603E
:100380004E7098BF3D238B703D23611C2370081A6B
:10039000106000200870BDE8F08300BFB0FD0008C9
:1003A0002DE9F043079FDFF82881002634463546C3
:1003B000BD423CD24FF0000C13F805E0BEF1200F17
:1003C00004D10135AF420CF1010CF5D8AF422ED06B
:1003D000C5EB070EBEF1010F0BD913F805E0BEF116
:1003E0000D0F06D103EB050E9EF801E0BEF10A0FDA
:1003F0001BD013F805E0BEF10A0F16D0BCF1000FB8
:1004000062D1BEF13D0F02D10136022E5CD81EF042
:10041000800F59D118F80EE0BEF17F0F54D0BEF115
:100420003F0F01D8002E4FD101340135C0E71CB970
:1004300014602046BDE8F08306277C430734C6EBF2
:10044000D40660B18E420AD800269E461D4401465D
:1004500003233446DFF878C0DFF878800FE01660B9
:100460006FF02900BDE8F0831EF8019BA9F10A078F
:10047000FFB2162F06D828FA07F7FF0702D5AE45B8
:10048000F2D11CE01CF809700134402F08BF013B79
:1004900007F03F07042C47EA8616F0D16BB1340C05
:1004A000012B0C7001D1013107E0022B4FEA162419
:1004B0004C7016BF8E70023103310024DFE7081A3A
:1004C00010600020BDE8F0836FF02B00BDE8F083E2
:1004D000F0FD00080900400070B50546142008F042
:1004E0006DFD142406462246002109F097FA0122E8
:1004F0002421304604F054FE2E60204608F05EFDB4
:1005000022460646002109F089FA01221D213046C3
:1005100004F046FE6E6070BD012990E80C0006D024
:1005200002290BD1D16892880A801A690AE0D96839
:100530009B880B80136992881A807047D1689288D3
:100540000A80DA689B8813807047704770B505464B
:10055000142008F033FD142406462246002109F039
:100560005DFA01222721304604F01AFE2E60204653
:1005700008F024FD22460646002109F04FFA012228
:100580000921304604F00CFE6E6070BD012990E830
:100590000C0006D002290BD1D16892880A801A6912
:1005A0000AE0D9689B880B80136992881A8070478B
:1005B000D16892880A80DA689B88138070477047F8
:1005C0004A680B6812F0010F4FEA620218BF8158A7
:1005D000104418BFCB58184743689A685B68126884
:1005E0001A4201D1022306E083689A685B681268A8
:1005F0001A4201D101230360704743689A685B681F
:1006000012681A4202D100230360704783689A6817
:100610005B6812681A42F6D070470000F8B50025F2
:1006200004460560142008F0C9FC1426074632462B
:10063000294609F0F3F901221521384604F0B0FDEE
:100640006760304608F0BAFC32460746294609F092
:10065000E5F901223146384604F0A2FDA760582092
:1006600008F0ACFC3221064606F0E2FFE6603046B8
:10067000012107F005F8E0680B4B0C4E8462012263
:10068000C3620563C6631146183003F0DDFFE068FE
:10069000074B0464436485644665012202211830D7
:1006A000BDE8F84003F0D0BFFB050008C105000815
:1006B000D905000801298368426806D002290BD1B8
:1006C000D16892880A801A690AE0D9689B880B80F1
:1006D000136992881A807047D16892880A80DA6814
:1006E0009B8813807047704700687047816070472F
:1006F00008B5406803F074FE001208BD10B504464A
:1007000013480AF0F5FD4FF07E5004F027FE4FF03D
:100710007E51206804F052F84FF07E5004F01EFE27
:100720002046FFF7E5FF00216061206804F046F8ED
:100730004FF07E5004F012FE2046FFF7D9FF6269A9
:1007400020610146BDE8104002480AF05FBD00BFCD
:10075000BFFE0008D8FE000838B50446182008F08F
:100760002DFC2221054604F0D9F8256028460021F9
:1007700004F024F80121206804F042F90C2008F06C
:100780001DFC0021054603F0BFFD0023A36080236C
:1007900023614FF40073656063612046BDE8384013
:1007A000FFF7ACBF38B50446FFF7A2FF21696369C4
:1007B000E0600A22401A42435B1A92FBF3F00028E1
:1007C00003DB0928A8BF092000E00020A368002B54
:1007D00002DB092B08DC00E00023984205DDC0EBBA
:1007E000430323EAE37300E009230D4A02EBC3034A
:1007F000D3E9004500220B4B204629460FF004F9AF
:1008000048B900220023204629460FF0DFF820B126
:100810000024002501E0034D00242046294638BD70
:1008200000FF00080000F03F10B50468FFF7BAFFB2
:100830000FF052F901462046BDE8104003F0BEBF5C
:1008400070B504468EB0142008F0B8FB1425064697
:100850002A46002109F0E2F801221A21304604F06C
:100860009FFC2660284608F0A9FB2A460646002180
:1008700009F0D4F801220821304604F091FC6660AA
:10088000482008F09BFB4FF0FF330C930B930A9327
:100890000993089307930693059304930393029394
:1008A0000E220F238DE80C002A210D232C22054651
:1008B00006F042FD01212846A5600EB0BDE870405B
:1008C00006F0BCBD806806F0A5BD012990E80C00CB
:1008D00006D002290BD1D16892880A801A690AE0F1
:1008E000D9689B880B80136992881A807047D168F9
:1008F00092880A80DA689B8813807047704770B5C9
:100900000546142008F05AFB14240646224600210E
:1009100009F084F801220A21304604F041FC2E60DF
:10092000204608F04BFB22460646002109F076F8E7
:1009300001221321304604F033FC6E6070BD0129A2
:1009400090E80C0006D009290BD1D16892880A8062
:100950001A690AE0D9689B880B80136992881A800B
:100960007047D16892880A80DA689B881380704744
:100970007047704730B587B0431804220092043B9B
:1009800004460D4605AA032103A8FFF709FD059BB0
:10099000022B09D01E491F4806F0C4FF03AA1E49B6
:1009A0001C4806F0BFFF29E02A1F214604A8FFF7D4
:1009B00059FC9DF810209DF80C309A4205D19DF805
:1009C00011209DF80D309A421ED01449114806F0AE
:1009D000A9FF03AA10490F4806F0A4FF9DF80D30A7
:1009E0009DF80C200E490B4806F09CFF9DF8113035
:1009F0009DF810200B49074806F094FF0A49054866
:100A000006F090FF002000E0012007B030BD00BFDD
:100A100050FF0008D80A002062FF000865FF0008A8
:100A200072FF000879FF00082400010810B5044C8B
:100A300023781BB904F030FC0123237010BD00BFE4
:100A4000740300202DE9F041013986B00446FFF718
:100A500091FF054600283DD02378632B39D1637878
:100A60001E4A1F4E303B13601E4AA31C106851687B
:100A7000336003AB03C354F8130F927A61689A7022
:100A800003AA03C222891A8003A808F0C0FA164BF1
:100A90001B7880460BB9FFF7C9FF002004F00EFC5D
:100AA000124C32681249C0EB080701972368009383
:100AB0001048434606F036FF013705DA0E4A136840
:100AC00003F00B03136004E00C4806F054FF2060B1
:100AD00000E00025284606B0BDE8F0818C03002028
:100AE000800A00209AFF0008740300207003002091
:100AF0007FFF0008D80A00207C0A0020080B002095
:100B00002DE9F04700232F4A94B019469954013338
:100B1000802B2C4DFAD12C4B2C4A002814BF1446A4
:100B20001C462B4803F05CFC80462A4803F058FC26
:100B30000646294803F054FC07462848FFF7D8FD2D
:100B400081462748FFF7BEFE82462648FFF7CCFDC8
:100B5000254B26491B681093254B3F121B680F93AA
:100B600036120E910D910C910B910A9109910891F9
:100B700007910690059104912246CDF80CA0CDF87E
:100B80000890019700964FEA28231A4928460AF050
:100B9000F5FC00242B5D0A2B03D00134802CF9D105
:100BA0000024224612A80749FFF75CFB02230093AA
:100BB00013AA12AB05212819FFF76CFB14B0BDE88E
:100BC000F08700BFB2090020A8FF0008A5FF0008B9
:100BD000180B0020FC0A0020F00A0020440300202B
:100BE0005C030020340300207C0A0020E5FF00089D
:100BF0008C030020ABFF000837B5002423462246B3
:100C000021460F4D00940F4806F09FFA16230093DB
:100C1000062205230721284605F074FA0A4A0B49E3
:100C2000284608F0C4F90A4805F01CFEB1230093D9
:100C3000A8222346C021074806F087FA03B030BD3A
:100C4000340A002088030020940100207309000862
:100C500078030020780A00201E4B37B51E4A1F4833
:100C60001A6005F05DFF04461C4806F02BF91B488E
:100C700006F043F9194805F090FF0546184806F0BC
:100C80007AFE214603462A4616480AF0BFFA164B5A
:100C900016491A68114805F0FBFB104805F03EFAAA
:100CA000019013480AF0B2FA002401AB1148195D13
:100CB00001340AF0ABFA032CF7D19DF807100E4867
:100CC0000AF0A4FA0D4842F2117103B0BDE83040B9
:100CD00005F09EBC800A002098010020340A002004
:100CE000080B0020E8FF0008780A00203B000108FC
:100CF000110001081D0001082100010878030020EF
:100D000013B504460D4805F087FD40F222620C49F8
:100D10000A4805F059FD094805F0AAFC2146084893
:100D2000FFF790FE074B1A6810B902F00F0201E0BE
:100D300002F00E021A6002B010BD00BF780300205E
:100D4000900300207C0A002007B5104805F064FDE0
:100D500001900E4805F072FC019902460B4805F01F
:100D600095FC80220A49094805F0DCFC074805F09B
:100D700029FE084B1A6810B902F00F0201E002F0D8
:100D80000D021A6003B05DF804FB00BF7803002079
:100D9000B20900207C0A00207047000010B5064B05
:100DA000036003F118024C330446426583655430F6
:100DB00006F0A6FD204610BDF0070108A0F1540082
:100DC000ECE7A0F15800E9E710B5044608F0F4F8A4
:100DD000204610BD10B50446FFF7E0FF204608F09E
:100DE000EBF8204610BDA0F15400F3E7A0F1580045
:100DF000F0E7000010B5104C00230322022120462A
:100E000006F0DCFC0D4A0E49204608F0D0F80D48EB
:100E100006F0C0FD01210C4803F076FA20210B48B2
:100E200003F072FA21210A4803F06EFA0121094801
:100E3000BDE8104003F068BA840A00209401002045
:100E40009D0D0008080B0020180B0020FC0A002054
:100E5000F00A0020240B0020DFF830D0002103E04E
:100E60000B4B5B58435004310A480B4B42189A42D3
:100E7000F6D30A4A02E0002342F8043B084B9A42A8
:100E8000F9D303F0A3F9FFF7B3F9FEE7000001205F
:100E9000D00D010894010020080300200803002061
:100EA000141F0020FEE70000F0B5C578124A0D447B
:100EB000EDB2D57083780F0A3B44DBB2937044786F
:100EC0005470067816709F4205D9601CC0B25070ED
:100ED00008B901361670C9B28D420CDA0133DBB2A3
:100EE000054993703BB94B780133DBB24B7013B9B2
:100EF0000B7801330B70F0BD750C002010B5094C58
:100F00002368014603F10800FFF7CEFF064A236875
:100F100011781972517859729178D2789972DA727F
:100F200010BD00BF300B0020750C00200023114ABB
:100F3000194622F813100133DBB2042BF9D1002338
:100F40000D48194600EB43120133DBB2042B5176F6
:100F5000F8D10A4B0A484FF480621A8000231946E0
:100F600000EB03120133DBB2042B9180F8D1054A68
:100F700013707047860C0020340B00207C0C00207E
:100F8000C40B0020840C0020254A2DE9F041138871
:100F9000244E01339BB2B3F5FA4F28BF4FF4805370
:100FA0001C0A44EA0324A4B20025042D07D001350D
:100FB00006EB051737F80C7CA742F6D1E9E71A4D86
:100FC0001380DFF860C000232B701E46042B18D05E
:100FD0001A010CEB020E5F1CBEF80480DFF844E03F
:100FE000FFB2B8F1000F09D106B12B700EEB02036E
:100FF0000C4D9C80D98048B9A8500BE03B46012697
:10100000E4E706B12B700020BDE8F0810188A95209
:10101000418859807244402111721846BDE8F08120
:101020007C0C0020C40B0020840C002004282DE937
:10103000F74FA44E00F06E81A34BDFF8B4E2A34F4C
:10104000A349DEF8004003F1360203283A600A6043
:10105000F346BA461D460ED1637E03F00F03032B01
:1010600040F07085238A002B40F06C85994B082254
:101070001A7000F06EBC02286CD1974BDA780132FE
:10108000D2B2DA7062B99A780132D2B29A703AB9B1
:101090005A780132D2B25A7012B91A7801321A70E3
:1010A0008E4B00221A80637E328003F0FD010529F9
:1010B00009D1A37E0133DBB2782BA37640F04285C1
:1010C000627600F03FBD002B00F03C85228A81480B
:1010D000002A37D0A27E511EA176002A40F0328528
:1010E000E27E082A04D0591E012909D8052A07D111
:1010F000002363768023037004F0D2FE00F036BC38
:10110000042A9CBF0321914003F00F0394BFC9B28E
:1011100030210132013BA176E276072B00F21285E5
:10112000DFE813F0890208000A00310410053104D9
:101130001005310400237FE20423037004F0B0FEA5
:1011400000F034BC03F00F03032B40F0FB840823B2
:101150000370FEE3052812D1614A12689288002AC2
:1011600000F0F0842A333B600B605C4B00221A8055
:10117000584BCEF80020328008221A70C8E09B7BC2
:10118000452B40F0DF842A7C6B7C03EB0223328802
:10119000934200F3D78433802B7D9F0640F0D284A6
:1011A0006F7D002F40F0CE844E4A138891460BB9D4
:1011B0005288B2B1EA7D4449112A07D1CA8B4FF651
:1011C000FF70824202D1098C914238D0EA8B9A4258
:1011D00040F0B8843C4B1A8CB9F802309A4240F087
:1011E000B18405F0C9F94FF6FF739842804640F08C
:1011F000A984EB7D344C062B00F0C680112B1ED049
:10120000012B40F09F8494F82230082B40F09A8400
:10121000002384F82230A38C4FF6F67293428CBFE1
:1012200009330833A3846B8BEB83AB8B2B84B9F826
:1012300000306B83B9F80230AB8300F07FBC338899
:10124000294CCAF800401C3B33802B8D73B9244ACB
:10125000264B1360B5F824E0B5F81AC0B5F81C8029
:10126000002103F140074FF6FF750BE005F08CF904
:101270004FF6FF73984240F06584E8E7988820B9FC
:1012800010330121BB42F9D315E07045F8D118881D
:1012900028B9B3F80290B9F1000F06D12AE0A842AC
:1012A00003D1B3F80290A94524D06045E8D158880D
:1012B0004045E5D11EE0002900F04484136000F0B1
:1012C00041BC00BFB80B0020040C0020680C0020BB
:1012D000900C0020740C00206C0C0020C00B00202F
:1012E000800C0020700C00202E0C0020C40B00206D
:1012F000300B002001B11360BC4ACAF80040022143
:101300001170BB4A1460BB4A0023CBF80030138035
:1013100005F0DAFAB74B1B88002B00F01384B64CAB
:1013200003F11C0292B26274110A3280B34A217432
:1013300012680833117AA1755BBAE3841121002386
:10134000E17584F8283084F8293093886384D38841
:10135000A384AB4B19885B886183A3831388E383E1
:1013600053882384A74B04F136021A6005F00CF968
:10137000C04380B208B12085CBE34FF0FF3384F83F
:10138000283084F82930C4E305F0F8F8404540F0EF
:10139000D983A38C0093B4F82280608BB4F81CE04E
:1013A000BDF80010984C637E83B1B4F804C08C453E
:1013B0000CD1B4F806C0C44508D1B4F800C08445C7
:1013C00004D1B4F802C0F44500F04D818F4B2034B5
:1013D0009C42E8D195F82F3003F03F03022B21D136
:1013E0008B4C8C48BDF8003023800023037080466E
:1013F00089489E46A246042B0FD030F81340013393
:10140000A142DBB24FF0010EF5D1002388F8003085
:1014100019461C46DFF8F09164E0BEF1000F01D0E0
:1014200088F8003095F82F20734B540700F18A8319
:10143000142283F82F2028223280502293F829008A
:1014400083F82E2093F82D2093F82B40714F83F8CA
:10145000292093F82C2093F8281083F828200130B5
:1014600093F8272083F8274093F826403C70C0B2B9
:1014700093F82A7083F82C1083F82B2083F82670B9
:1014800083F82A4083F82D0060B90131C9B283F88E
:101490002C1039B90132D2B283F82B2012B9621C58
:1014A00083F82A205A4A6B8C1380AA8CAB846B8BEE
:1014B000EB83AB8B2B84B9F800306B83B9F8023027
:1014C0006A84AB8312E3504A580102EB000E9EF887
:1014D00019C0BCF1000F08D0BCF1070F0BD00133CD
:1014E000DBB20121042BEED10EE009B188F8003007
:1014F000454C04440EE024B19EF81AE0A17E8E45CE
:10150000EDD909EB0004EAE709B188F80030002CB6
:1015100000F018830323A37623760423E3754FF0AA
:101520000009BDF80030CBF8004084F8169084F82C
:101530001B90A38095F8232095F8223043EA0223DC
:10154000E380EA7EAB7E43EA022323806A7F2B7F1F
:1015500043EA02236380314B1A7822735A7862730C
:101560009A78DB78E37395F82930E37295F82830A0
:10157000A372012095F82730A273607620826372EF
:1015800095F826302372FFF7B9FC95F82E3003F05A
:10159000F002502A4FD91B09053B980088F80090AB
:1015A0004B46874244DAE91991F83620002A3FD0A9
:1015B000012A01D1013738E0022A31D191F83720D0
:1015C000042A2DD10BB188F800702F4497F83820E9
:1015D00097F8393043EA0223B3F5007FAAF80030C8
:1015E00028BF4FF400736382A38224E0740C0020B0
:1015F000900C0020C00B0020040C0020800C002068
:10160000700C0020680C0020340B0020B40B00206C
:101610007A0C0020840C0020860C00206C0C00202A
:10162000EA1992F837201AB11744FFB20123B8E73C
:101630000BB188F80070102385F82F3095F82F3003
:1016400043F0020385F82F30022385F8363085F801
:1016500038300023042285F839302C23338085F874
:101660003720602307E295F82F10DFF878E2CBF8F7
:101670000040002201F004008EF8002000F0FF0876
:10168000774620B1202362768EF80030AFE1924A8F
:10169000924892F82E20009012094FEA820E32886A
:1016A00080F800E0143ACEEB020203F00F0392B28E
:1016B000022B328003D101F03F03122B0DD00AB967
:1016C00088070AD0EA8C23899A4240F0CE81824B67
:1016D0001A8D63899A4240F0C881C90647D5218A8C
:1016E000002944D004F10C00FFF7DEFB7C4B95F899
:1016F0002A1093F800E0784A8E4538D192F82B10E2
:101700005878884233D192F82CC0997861452ED10F
:1017100092F82D20DB78934229D1E373E37E84F89D
:101720000CE06073A173E3B9237EA17EA07D591AFA
:10173000A1EBD001C9B24FFA81FEBEF1000FE37DEB
:101740000844B8BF4942A3EB9303B8BF4FFA81FEE8
:1017500003EB0E02C0B2D3B2E37503EBD003A07566
:10176000237601233B70237EA37600232382617EB0
:1017700001F00F03013B072B00F2E481DFE813F0D7
:1017800008001C008A003A0156016D0175012E0106
:101790003A78544BD20740F1D581032262763088E3
:1017A00040221A7000222282002800F0CF804222BC
:1017B0001A70FFF7A3FBC9E03B78DB0761D595F80A
:1017C0002F3003F03F03122B5BD1434B93F82E20B5
:1017D00002F0F003502B3BD9009912090023053A7F
:1017E0000B70920090452FDA05EB080090F8361048
:1017F00051B3012902D108F1010821E0022919D1D0
:1018000090F83710042915D113B1344B83F80080B8
:10181000314B984498F8382098F8393043EA02233D
:10182000314AB3F5007F138028BF4FF40073638201
:10183000A3820DE005EB080191F8371021B188442F
:101840005FFA88F80123CDE713B1244B83F80080B9
:101850000323637695F82630237295F82730637258
:1018600095F82830A37295F82930E3720120FFF72C
:1018700045FB42231D4A3B700023238233801380A3
:1018800067E020233B7004F00BFBDBF80030002204
:101890005A76C7E595F82F30D80729D5CA0627D438
:1018A000238A002B40F04E813088013080B2FFF750
:1018B00025FB3B7843F010023A7032881AB1094A8E
:1018C00043F01203137004F0EBFA01232382082380
:1018D00063760023E37656E0040C0020840C00209D
:1018E000750C0020740C00207A0C0020C00B002026
:1018F00098060DD595F8342095F8353043EA022343
:10190000DAF800201A44CAF800203288D31A33804B
:10191000308838B1C90605D43B7843F002033B70E8
:10192000FFF7ECFA95F8302095F83130A18A03EBF7
:1019300002239BB2874A8B42138000D803B91180DF
:10194000138863823B789A0700F0FC80824B002268
:101950001A8004F0A5FA814B7F481B7803F0200120
:1019600001F0FF0221B100230380637614237DE0A0
:1019700003F0100101F0FF0739B101232382042392
:1019800002806376E276112370E0028862B1DB07A1
:1019900048BF2782238A33B9638A9A4288BF03806B
:1019A0000388238200E003800023E3766C4B1B68EE
:1019B000CAF80030684B1B882BB1238A1BB128332F
:1019C0003380182307E0654B1B789F0740F1BA80EE
:1019D00028233380102385F82F304BE03B78DD0738
:1019E00040F1B080002363765C4B10221A7004F043
:1019F00057FAA7E0308808B1FFF780FA95F82F3042
:101A000013F001030BD03B78D80745BF072363765B
:101A10000623002346BFA3762382637612E03A783A
:101A2000D10717D50522627623828BE0308808B172
:101A3000FFF764FA95F82F30DA070BD507236376A2
:101A40000023A3760120FFF759FA10233B7004F01E
:101A500027FA0AE0338843B974E03B78DB0771D595
:101A6000072363760023A3766CE0102385F82F30DC
:101A700028233380502385F82E30237A85F82A30A6
:101A8000637A85F82B30A37A85F82C30E37A85F8D1
:101A90002D30237B85F82630637B85F82730A37BA8
:101AA00085F82830E37B85F829300623EB75A38879
:101AB0006B84E388AB842B4B2B4A19885B88698342
:101AC000AB832388EB8363882B84637E03F010034E
:101AD00003F0FF012BB1002382F8313082F830305F
:101AE00004E0022382F8303082F831104023AB75D5
:101AF00033886B741A0A00232A7485F8353085F808
:101B0000343085F8323085F8333004F037FDC04387
:101B10006886154C15494523A3730B8801339BB286
:101B200000220B80190AE27362752275A174E374B6
:101B30002276627604F020FDC0432083074B00220A
:101B40001A7003E0054A00233380137003B0BDE828
:101B5000F08F00BF7A0C0020C00B0020740C002016
:101B6000900C0020700C0020040C0020BA0B002008
:101B700040BA80B270470000064B0029198008DD8A
:101B8000054B1B68834204D08AB20146184607F011
:101B90001FBF7047C00B0020900C00202DE9F04FB4
:101BA000434C444E002323701A464FF00C0C082B74
:101BB000404D25D00CFB03F706EB070836F807E08D
:101BC000BEF1000F18D0B8F80270AFB1B0F80080C5
:101BD000F04511D1B0F802E0BE450DD102B123703D
:101BE0000C2202FB03530A685A608A881A81324A1F
:101BF00012789A72BDE8F08F0133DBB20122D6E78A
:101C00000022227016460C23082A10D003FB02F78C
:101C100005EB070EEF5B37B9BEF802701FB9002E57
:101C200037D0227035E00132D2B20126ECE7224FE4
:101C3000224E234A97F800A00023337013709E466B
:101C4000984699469C464FF00C0B082B11D00BFB85
:101C50000357BF7AC7EB0A076745C4BF98464FF0E2
:101C6000010E03F10103C4BF5FFA87FCF146DBB24A
:101C7000EBE7B9F1000F01D086F800C0BEF1000F0C
:101C800001D082F80080137823704FF00C0E0EFB09
:101C9000035E7346026843F8042B0A68CEF80420FA
:101CA0008A889A80044B1B788EF80A30BDE8F08F42
:101CB0009A0C00209C0C0020FD0C00209B0C0020A6
:101CC000FC0C0020084A70B50023084C1370104625
:101CD0000C2519461378072B05D805FB03F60133AD
:101CE000A1510370F6E770BD9A0C00209C0C0020F7
:101CF0000E4A0F4813880F4910B40E3B1380428BD5
:101D00000B8853400C4A148823420BD1848B4B8898
:101D100052886340134205D1811D5DF8044B1A308F
:101D2000FFF73CBF5DF8044B704700BFB80B0020C5
:101D3000040C0020700C0020B40B00202DE9F041B1
:101D40002E4D2B884FF00008292BA5F8008001D8D4
:101D5000BDE8F0812A4CA38AB3F5807F04D0B3F5A7
:101D6000007F37D0BDE8F081264EE28C33889A425E
:101D700041D1228D73889A423DD104F1160739462C
:101D800004F11C00FFF70AFFD4F816202262628BD0
:101D9000A28402236375A38CA380A38BE384E38BCB
:101DA000194A23853388A38373881168E383928853
:101DB0006283082362812373226AC4F81610062303
:101DC0006373C4F806102A23226084F814802B80E1
:101DD000BDE8F0810B4BE18C1A8891420BD1228D2A
:101DE0005B889A4207D104F1160104F11C00BDE89A
:101DF000F041FFF7D3BEBDE8F08100BFB80B002073
:101E0000040C0020700C0020940C0020484B2DE99D
:101E1000F043DD8B4FF6FF72A9B2914205D11A8CC7
:101E20008A4202D1434A11686DE04348434E02881A
:101E30004A4031880A42424905D11C8C4288768842
:101E40006240324205D03F4A148852880C804A8052
:101E500001E00D804C803C4C0F88B1F80280DFF827
:101E6000FCE00022227016464FF00C0C082A0FD01E
:101E70000CFB02F50EEB05093EF80550BD4203D1FF
:101E8000B9F80250454536D00132D2B20126EDE70D
:101E900006B122702D4E2E4C49882568A488C3F8BF
:101EA00016504FF0FF321A609A8000221A62B280F8
:101EB0001985018826F8064C99834188C3F8065095
:101EC000D98326F8164C01211A759A735A74062282
:101ED0005975D9739A7408215A7304201D4ADF84F6
:101EE0001974D874197306F1160313601A4B2A2259
:101EF0001A80BDE8F08306B1227018490C2000FB5F
:101F0000021252F8041F196092889A80104A1168D0
:101F1000C3F806109188124A918008221A73002291
:101F20005A730D4A13880E331380BDE8F08300BF47
:101F3000040C002041000108700C0020B40B0020AC
:101F4000FE0C0020BC0B00209A0C0020240C00206A
:101F5000940C0020680C0020B80B00209C0C002082
:101F60000A0C002070470000074A08B5136843F0C8
:101F700010031360032000F07FFB0F2002F054F8E1
:101F8000FFF7F0FF002008BD00200240024A13685E
:101F900001331360704700BF040D0020014B186827
:101FA000704700BF040D0020704738B50368044631
:101FB000986800F00300012801D0002038BD1A689D
:101FC000D207FAD59A6802F00D02012A09D19A685F
:101FD00042F002029A6003221A60FFF7DFFF054613
:101FE00007E0042384F84530A36C43F00103A364A5
:101FF00038BD23689B68DB07DFD5FFF7CFFF401BA9
:102000000228F6D9042384F84530A36C43F0010379
:10201000A364012038BD000038B503689A6802F057
:102020000302012A044604D11A68D20701D5002010
:1020300038BD99680D4A0A407AB99A6842F001029F
:102040009A60FFF7ABFF054623681B68DB07EED4F9
:10205000FFF7A4FF401B0228F6D9042384F845307B
:10206000A36C43F00103A364012038BD3F0000804E
:1020700070B5044694B0002800F0CF8090F8453049
:102080000BB1002016E0FFF78FFF23689B68DE008E
:10209000F7D42046FFF789FF01280BD0022384F8EC
:1020A000453023689A6822F040529A609A6842F05C
:1020B00080529A6023689A6802F04052B2F1805FC1
:1020C00007D0042284F84520A26C42F00102A264E9
:1020D000012094F84520042A00F09C80996811F0B2
:1020E000040240F097800221B3F1A04F84F845101C
:1020F000584900F094808B4240F09D804FF0A04200
:10210000019202F54072996801F00301012902D1A0
:102110001968CD070BD40199002900F083808D68E0
:1021200005F00305012D7DD10968C9077AD5D96865
:10213000494AE668E5690A40DA60A168A26B314362
:10214000012A0CBF00224FF4805241EA453111436D
:10215000626A012A06D12DB9A26A013A41EA4241D6
:1021600041F48031E26A012A2FD03C4DAB4203D0CA
:1021700005F58075AB4214D1B2F5307F14D0B2F5BD
:10218000807F14D0B2F5E07F14D0B2F58A5F14D00E
:10219000B2F5845F14D0B2F5865F08BF4FF4C07209
:1021A00010E022F480520DE04FF4E0720AE04FF4A8
:1021B000307207E04FF4807204E04FF4707201E077
:1021C0004FF4A072256B294311439A6812F00C0F4B
:1021D0000BD1DA68A56922F4804222F00202DA60AB
:1021E000626B520042EA85321143DA681143D960CA
:1021F0001A6B22F00F021A632269012A04D1226AA3
:10220000196B013A0A431A630023A364012384F87B
:1022100045301CE0042384F84530012017E001918B
:102220000F4A70E7916821F44031916095686168C8
:10223000294391607BE7094D0A49AB4201D10191E5
:1022400003E08B420CBF01950192074A5BE714B093
:1022500070BD00BF0001005007C0F0FF0004005037
:1022600000030050000500500007005090F8443073
:10227000012B10B5044631D0012380F84430FFF71C
:10228000CBFE012826D094F84530222B0CBF3223F8
:10229000122384F845300023A36423681C22B3F181
:1022A000A04F1A6002D00E4A934204D10D4A9268A0
:1022B000D1060BD004E00C4A9268D20606D002E0A8
:1022C000B3F1A04F02D0094A934203D19A6842F079
:1022D00004029A60002384F8443010BD022010BD2F
:1022E000000100500003005000070050000400509F
:1022F000F8B54369082B04460D460CBF08260C268A
:10230000FFF74CFE074623681A68164210D16A1C74
:10231000FAD03DB9032384F84530002384F84430D3
:102320000120F8BDFFF73AFEC01B8542EBD2F1E772
:10233000A2690AB90C221A6094F84530042B0BD01C
:1023400094F84530352B07D094F84530252B0CBF39
:102350003523152384F845300020F8BD03680C228E
:102360001A60186C70470000F0B590F84430012BEB
:1023700095B000F0F78003689C680122670780F839
:10238000442000F1E6804D680C68042D4FF00602F1
:102390000CD81E6B6A431F25954026EA05051D6370
:1023A0001D6B04FA02F22A431A632CE0092D0DD8A2
:1023B0006A435E6B1E3A1F25954026EA05055D635C
:1023C0005D6B04FA02F22A435A631CE00E2D0DD80D
:1023D0006A439E6B3C3A1F25954026EA05059D639E
:1023E0009D6B04FA02F22A439A630CE06A43DE6BA7
:1023F0005A3A1F25954026EA0505DD63DD6B04FA90
:1024000002F22A43DA639A6812F00C0F7DD10A2C8B
:102410004FEA44028D680DD922449F691E3A07266F
:10242000964027EA06069E619E6905FA02F232434B
:102430009A610BE05F6922440726964027EA060668
:102440005E615E6905FA02F232435A61DD680E6927
:10245000C5F3C1056A004D69013E9540A206032EF1
:102460002FD8DFE806F0020D18231F6E7C4E3E4089
:102470001E661E6E46F00046324315431D6644E05C
:102480005F6E774E3E405E665E6E46F000463243BB
:1024900015435D6639E09F6E714E3E409E669E6EAE
:1024A00046F00046324315439D662EE0DF6E6C4ECB
:1024B0003E40DE66DE6E46F0004632431543DD6682
:1024C00023E01D6E05F0F845954202BF1D6E25F014
:1024D00000451D665D6E05F0F845AA4202BF5D6EBF
:1024E00025F000455D669D6E05F0F845AA4202BFE5
:1024F0009D6E25F000459D66DD6E05F0F845AA420B
:1025000002BFDA6E22F00042DA669A6802F0030235
:10251000012A02D11A68D60719D4CA68012A23D021
:10252000D3F8B0100122A24021EA0202C3F8B02081
:10253000B3F1A04F40D04B494B4A4C4DAB4208BF82
:102540000A46102C3AD1916811F4000F42D00023B2
:1025500003E0042380F845301346002280F844202D
:1025600018467BE0022079E0D3F8B050A2402A431D
:102570000A2CC3F8B0208D680FD904EB44019E6982
:10258000A1F11B020721914026EA01019961996995
:1025900005FA02F20A439A61CAE7611C5E6901EB1F
:1025A000410107228A4026EA02025A615E6905FA61
:1025B00001F232435A61BBE72A4AC2E7112C03D128
:1025C000916811F0807FC1E7122CC0D1916811F49D
:1025D000800FBBE7B3F1A04F24490DD08B4202D14D
:1025E0004FF0A04108E02249224D8B4201D10195D4
:1025F00003E0AB4218BF00210191996801F003018B
:10260000012902D11968CD0709D4019961B18D68FA
:1026100005F00305012D07D10968C90704D5042376
:1026200080F84530012398E7102C07D1B3F1A04F73
:102630008DD1936843F40003936088E7112C06D191
:10264000B3F1A04F83D1936843F08073F4E7122C69
:102650007FF47DAF936843F48003EDE715B0F0BDE0
:1026600000F0FF83000300500007005000010050FD
:102670000004005000050050074AD36823F4E063CB
:102680001B041B0C43F0BF63000243F4003300F44F
:10269000E0600343D360704700ED00E02DE9F74FA1
:1026A000DFF87CC10B68DFF87CE101934FF0010893
:1026B00000236446019A08FA03F535EA020240F065
:1026C000A6804A6822F01009B9F1020F14D14FEA2E
:1026D000D30A00EB8A0A03F0070BDAF820704FEAFE
:1026E0008B0B0F2606FA0BF627EA06060F6907FA88
:1026F0000BF73743CAF820704FEA430A03260768EE
:1027000006FA0AF6F64302F0030B37400BFA0AFB0F
:1027100009F1FF394BEA0707B9F1010F076012D839
:10272000876807EA060BCF6807FA0AF949EA0B0738
:1027300087604768C2F3001927EA050709FA03F919
:1027400049EA07074760C7683E408F6807FA0AF7FB
:102750003E43C660D6005AD5DEF8186023F0030960
:1027600009F1804946F0010609F58039CEF8186074
:1027700003F0030AD9F808704FEA8A0A0F2606FA0E
:102780000AF6B0F1904F27EA060715D0234EB04263
:1027900014D006F58066B04212D006F58066B042CD
:1027A00010D006F58066B0420ED006F58066B042C5
:1027B00014BF0626052608E0002606E0012604E0F0
:1027C000022602E0032600E0042606FA0AF63E434B
:1027D000C9F80860DCF80060EF4312F4803F0CBFDA
:1027E0003E402E432660666812F4003F0CBF3E4018
:1027F0002E436660A66812F4801F0CBF3E402E4335
:10280000A660E668920254BF3E402E43E660013364
:10281000102B7FF44FAF03B0BDE8F08F00040048E9
:1028200000040140001002404FF4807393FAA3F3B8
:10283000B3FA83F3DBB29B0003F1844303F5602317
:1028400001221A6070470000AD4A136803F00703C5
:102850008B422DE9F04104460E4680F0A6801368B5
:1028600023F007030B431360136803F00703994237
:1028700002D00120BDE8F08101688F0706D5A1488C
:10288000436823F0F002A36813434360CE070BD4E0
:1028900021684D0740F123819A48436823F4E062A0
:1028A000E368134343601AE16268964D012A15D12B
:1028B0004FF4003191FAA1F3B3FA83F3C3F3421357
:1028C00043F00103012B01D1286804E091FAA1F142
:1028D000B1FA81F1686A4FF400332AE0022A15D177
:1028E0004FF0007191FAA1F3B3FA83F3C3F34213EB
:1028F00043F00103012B01D1286804E091FAA1F112
:10290000B1FA81F1686A4FF0007312E0022191FA86
:10291000A1F3B3FA83F3C3F3421343F00103012B92
:1029200001D1286804E091FAA1F1B1FA81F1686A55
:10293000022393FAA3F3B3FA83F3012103F01F03F5
:1029400001FA03F3034294D06B6823F003031A43A4
:102950006A60FFF723FB6368012B064641F2883764
:102960000CD16B6803F00C03042B91D0FFF716FB1E
:10297000801BB842F5D90320BDE8F081022B0FD1AE
:102980006B6803F00C03082B82D0FFF707FB801B5A
:10299000B842F5D9EFE7FFF701FB801BB842EAD850
:1029A0006B6813F00C0FF6D172E70168880706D543
:1029B0005448436823F0F002A36813434360CA07F6
:1029C0000CD44F4A136823F0070333431360136892
:1029D00003F007039E427FF44CAF59E76268494D0C
:1029E000012A15D14FF4003191FAA1F3B3FA83F320
:1029F000C3F3421343F00103012B01D1286804E023
:102A000091FAA1F1B1FA81F1686A4FF400332AE03A
:102A1000022A15D14FF0007191FAA1F3B3FA83F3B2
:102A2000C3F3421343F00103012B01D1286804E0F2
:102A300091FAA1F1B1FA81F1686A4FF0007312E0E6
:102A4000022191FAA1F3B3FA83F3C3F3421343F0E3
:102A50000103012B01D1286804E091FAA1F1B1FA38
:102A600081F1686A022393FAA3F3B3FA83F3012195
:102A700003F01F0301FA03F303423FF4FAAE6B685D
:102A800023F003031A436A60FFF788FA6368012B97
:102A9000074641F288380AD16B6803F00C03042B17
:102AA0008FD0FFF77BFAC01B4045F5D963E7022BB7
:102AB00010D16B6803F00C03082B82D0FFF76EFA7D
:102AC000C01B4045F5D956E7FFF768FAC01B4045E3
:102AD0003FF651AF6B6813F00C0FF5D171E70B07A0
:102AE00007D5084A2169536823F4605343EAC103B8
:102AF00053600F2001F098FA0020BDE8F08100BF7C
:102B0000002002400010024008B500F039FB094BDC
:102B10005A68F02393FAA3F3B3FA83F302F0F002B6
:102B2000DBB222FA03F3044AD35CD840034B1860AB
:102B300008BD00BF0010024047000108B801002096
:102B400008B5FFF7E1FF084B5A684FF4E06393FACA
:102B5000A3F3B3FA83F302F4E062DBB222FA03F3E5
:102B6000024AD35CD84008BD00100240470001086B
:102B700008B5FFF7C9FF084B5A684FF4605393FA42
:102B8000A3F3B3FA83F302F46052DBB222FA03F345
:102B9000024AD35CD84008BD00100240470001083B
:102BA00003682DE9F047DD07044604D4236898073D
:102BB00000F1BF8052E1BF4D6B6803F00C03042BA2
:102BC0000AD06B6803F00C03082B2BD16B6803F45D
:102BD000C033B3F5803F25D14FF4003292FAA2F30F
:102BE000B3FA83F3C3F3421343F00103012B01D182
:102BF000296804E092FAA2F2B2FA82F2696A4FF40A
:102C0000003393FAA3F3B3FA83F3012203F01F0313
:102C100002FA03F30B42C9D063689342C6D0012085
:102C2000BDE8F087A44E00233370FFF7B7F94FF4E7
:102C3000003781464FF0010897FAA7F3B3FA83F300
:102C4000C3F3421343F00103012B01D12A6804E0CE
:102C500097FAA7F3B3FA83F36A6A97FAA7F3B3FA7A
:102C600083F303F01F0308FA03F3134209D0FFF7BD
:102C700095F9C9EB0000B0F5FA7FDDD90320BDE876
:102C8000F087237933706668012E28D1FFF786F923
:102C90004FF40037804697FAA7F3B3FA83F3C3F3F0
:102CA000421343F00103012B01D12A6804E097FA93
:102CB000A7F3B3FA83F36A6A97FAA7F3B3FA83F335
:102CC00003F01F0306FA03F313427FF46FAFFFF71D
:102CD00065F9C8EB0000B0F5FA7FDCD9CEE7FFF765
:102CE0005DF94FF400368046012796FAA6F3B3FA51
:102CF00083F3C3F3421343F00103012B01D12A688C
:102D000004E096FAA6F3B3FA83F36A6A96FAA6F396
:102D1000B3FA83F303F01F0307FA03F313423FF4FC
:102D200045AFFFF73BF9C8EB0000B0F5FA7FDCD9FF
:102D3000A4E7604D6B6813F00C0F0AD06B6803F0CA
:102D40000C03082B28D16B6803F4C033B3F5004F94
:102D500022D1022292FAA2F3B3FA83F3C3F342130D
:102D600043F00103012B01D1296804E092FAA2F299
:102D7000B2FA82F2696A022393FAA3F3B3FA83F3F5
:102D8000012203F01F0302FA03F30B422FD0E36882
:102D900093427FF444AF2AE0E268484BB2B3012685
:102DA0001E60FFF7FBF80227804697FAA7F3B3FAF5
:102DB00083F3C3F3421343F00103012B01D12A68CB
:102DC00004E097FAA7F3B3FA83F36A6A97FAA7F3D2
:102DD000B3FA83F303F01F0306FA03F3134206D199
:102DE000FFF7DCF8C8EB00006428DED946E72A6864
:102DF000F82393FAA3F3B3FA83F32169DBB201FA60
:102E000003F322F0F80213432B6027E01A60FFF768
:102E1000C5F802268046012796FAA6F3B3FA83F393
:102E2000C3F3421343F00103012B01D12A6804E0EC
:102E300096FAA6F3B3FA83F36A6A96FAA6F3B3FA9C
:102E400083F303F01F0307FA03F3134206D0FFF7DF
:102E5000A5F8C8EB00006428DED90FE7236819073E
:102E600004D423685A0740F1A8804BE06269114DF1
:102E7000134B3AB301261E60FFF790F802278046F5
:102E800097FAA7F3B3FA83F397FAA7F3B3FA83F3A6
:102E90006A6A97FAA7F3B3FA83F303F01F0306FAFB
:102EA00003F31342DDD1FFF779F8C8EB0000642883
:102EB000E6D9E3E600100240021002400000424260
:102EC000800442421A60FFF769F802268046012713
:102ED00096FAA6F3B3FA83F396FAA6F3B3FA83F35A
:102EE0006A6A96FAA6F3B3FA83F303F01F0307FAAC
:102EF00003F31342B5D0FFF751F8C8EB0000642884
:102F0000E6D9BBE69B4D9C4EEB6943F08053EB61E9
:102F1000336843F480733360FFF740F80746336843
:102F2000DB054ED52B6A23F005032B62FFF736F83D
:102F300002268146B046012796FAA6F3B3FA83F338
:102F400096FAA6F3B3FA83F3C3F3421343F00203F2
:102F5000022B0CBF2A6A6A6A98FAA8F3B3FA83F3C1
:102F600003F01F0307FA03F3134230D12B6AA6685C
:102F700023F005033343012E2B623AD1FFF70EF8FD
:102F800002278146B84697FAA7F3B3FA83F397FA74
:102F9000A7F3B3FA83F3C3F3421343F00203022B04
:102FA0000CBF2A6A6A6A98FAA8F3B3FA83F303F0AB
:102FB0001F0306FA03F3134212D0A269002A41D17B
:102FC00095E0FEF7EBFFC01B6428A8D956E6FEF794
:102FD000E5FF41F28833C9EB00009842ACD94DE6D9
:102FE000FEF7DCFF41F28833C9EB00009842CAD9F2
:102FF00044E6FEF7D3FF02268146B046012796FA43
:10300000A6F3B3FA83F396FAA6F3B3FA83F3C3F302
:10301000421343F00203022B0CBF2A6A6A6A98FA31
:10302000A8F3B3FA83F303F01F0307FA03F3134281
:10303000C3D0FEF7B3FF41F28833C9EB00009842DA
:10304000DDD91BE64B4D6B6803F00C03082B3FF4F6
:10305000E6AD4A4E0023022A336064D1FEF79EFF9C
:103060004FF0007781464FF0010897FAA7F3B3FAC3
:1030700083F3C3F3421343F00103012B3AD12A68CF
:1030800097FAA7F3B3FA83F303F01F0308FA03F3E5
:1030900013424FF0010A33D1EB6A23F00F02636A47
:1030A0001343EB62216AE2696B680A4323F47613E7
:1030B00013436B60C6F800A0FEF770FF4FF0007678
:1030C0000746544696FAA6F3B3FA83F3C3F34213C2
:1030D00043F00103012B1AD12A6896FAA6F3B3FA3A
:1030E00083F303F01F0304FA03F3134215D0002007
:1030F000BDE8F08797FAA7F3B3FA83F36A6ABFE7EC
:10310000FEF74CFFC9EB00006428AED9B6E596FA8D
:10311000A6F3B3FA83F36A6ADFE7FEF73FFFC01B4B
:103120006428CFD9AAE5FEF739FF4FF000740746AF
:10313000012694FAA4F3B3FA83F3C3F3421343F0E2
:103140000103012B01D12A6804E094FAA4F3B3FA35
:1031500083F36A6A94FAA4F3B3FA83F303F01F03C8
:1031600006FA03F31342C2D0FEF718FFC01B64280F
:10317000DFD983E500100240007000406000424249
:10318000134B5A6802F00C01082910B51DD14FF4F9
:10319000701494FAA4F4B4FA84F4D96A0F2393FA5D
:1031A000A3F3B3FA83F3DBB201F00F01D940094B6B
:1031B00002F47012585C0849B1FBF0F0E3B222FA55
:1031C00003F3064AD35C584310BD034810BD00BF4B
:1031D000001002405700010800127A006700010841
:1031E0007047026838B5D36823F0A003D360044663
:1031F000FEF7D4FE05462368DB689B0607D4FEF77E
:10320000CDFE401BB0F57A7FF5D9032038BD0020F4
:1032100038BD38B50368DA685206044601D5002087
:1032200038BD4FF0FF32DA60FEF7B8FE054623687E
:10323000DB685B06F3D4FEF7B1FE401BB0F57A7F86
:10324000F5D9032038BD10B5044600283AD0437F95
:103250000BB9FFF7C5FF022363772368CA225A62BE
:1032600053225A622046FFF7D4FF236820B1FF2281
:103270005A620423637725E09A6822F4E00222F080
:1032800040029A6099686268114322691143626939
:103290000A439A60E2681A611A69A16842EA014227
:1032A0001A61DA6822F08002DA601A6C22F4802255
:1032B0001A64196CA2690A431A64FF225A62012334
:1032C000637710BD012010BD0023092803D90A38F7
:1032D0000133C0B2F9E740EA0310C0B27047F8B555
:1032E000037F012B06460F464FF0020564D00123F1
:1032F0000377036845770878BD7849789B68AAB951
:1033000013F0400308BF3B72FFF7DEFF0446084698
:10331000FFF7DAFF02462846FFF7D6FF3B7A40EA7E
:10332000034040EA044040EA02240AE013F040036C
:1033300008BF3B72090241EA0044387A254345EA56
:1033400000443368CA225A6253225A623046FFF759
:1033500060FF3368054630B1FF225A620423737759
:10336000002333771FE004F07F3020F0FE40186028
:103370009A6822F480229A609968FA6811433A693F
:103380000A439A60DA6822F08002DA609B689B0642
:103390000BD43046FFF725FF38B13368FF225A625D
:1033A000042373773577012506E03368FF225A62DC
:1033B00001237377002333772846F8BDF8B5037FE0
:1033C000012B06464FF0020557D0012303774577BE
:1033D0004B78C8788D780F78002A47D1DA0603D564
:1033E00023F010020A324A70FFF76EFF0446487855
:1033F000FFF76AFF02462846FFF766FF40EA4730BC
:1034000040EA044040EA02243368CA225A62532246
:103410005A623046FFF7FDFE3368054630B1FF22A1
:103420005A62042373770023337715E024F07F403A
:1034300020F0C0005860DA6822F08002DA609B68F1
:103440009B060BD43046FFF7CCFE38B13368FF2221
:103450005A6204237377357701250EE03368FF2223
:103460005A62012373770023337706E01B0243EA95
:103470000040284340EA4734C6E72846F8BD00F03C
:103480000F03000900EB800003EB4000C0B270475F
:10349000036870B5986A1D68486005F07F3323F0B3
:1034A000FE431E0C06F03F00C3F3062405F07F0523
:1034B00006F0400608704C708D700E7252B9FFF71E
:1034C000DEFF08702046FFF7DAFF48702846FFF756
:1034D000D6FF8870002070BD38B503685C6824F0A2
:1034E0007F4323F0C003180CC3F3042504F03F040A
:1034F000C3F34233C8704D708C700B7052B9FFF734
:10350000BEFFC8702846FFF7BAFF48702046FFF795
:10351000B6FF8870002038BD704770B5044600289B
:103520004CD0022380F85D30FFF7F6FF2168E26897
:103530000B68B2F5E06F23F040030B604FF000031F
:1035400003D91846B2F5706F01E04FF4805018BFF0
:10355000A362236B2BB9B2F5E06F8CBF022301236A
:103560002363A5686668A3692E4325692E436569B0
:103570002E43E5692E43256A2E43A56A2E4303F4A4
:10358000007535430D60256B022D02BF0D6845F4B3
:1035900000650D60656A2A43656B1B0C154303F0DB
:1035A000040245EA020303434B60E36A0B61002017
:1035B000012384F85E0084F85D3070BD012070BD89
:1035C00070477047304A0368904212D0B0F1804F84
:1035D0000FD0A2F5943290420BD002F58062904257
:1035E00007D002F59632904203D002F5E0529042A5
:1035F00015D14A6823F070031343234A90421DD02B
:10360000B0F1804F1AD0A2F59432904216D002F554
:103610008062904212D002F5963290420ED01B4A40
:1036200090420BD002F58062904207D002F5806292
:10363000904203D002F50062904203D1CA6823F49D
:103640004073134303608B68C3620B6883620E4B45
:10365000984213D003F5006398420FD003F54063FE
:1036600098420BD003F58063984207D003F580633E
:10367000984203D003F50063984201D10B690363BC
:1036800001234361704700BF002C0140004001400E
:1036900010B5044680B190F839300BB9FFF790FFB0
:1036A000022384F839302068211DFFF78BFF0123A6
:1036B00084F83930002010BD012010BD10B504463B
:1036C00080B190F839300BB9FFF77BFF022384F803
:1036D00039302068211DFFF775FF012384F8393048
:1036E000002010BD012010BD036A23F00103036216
:1036F000036A426870B584690D6824F4803424F04C
:1037000073042C438D6823F002032B431F4DA84202
:1037100013D005F50065A8420FD005F54065A84215
:103720000BD005F58065A84207D005F58065A84255
:1037300003D005F50065A84222D1CD6823F0080327
:103740002B43124DA84223F0040313D005F5006566
:10375000A8420FD005F54065A8420BD005F580655D
:10376000A84207D005F58065A84203D005F500659D
:10377000A84205D14E698D6922F4407235432A432F
:1037800042604A6884614263036270BD002C01405C
:10379000036A23F010030362036A30B54468826948
:1037A0000D6822F0807222F4E64242EA05228D681A
:1037B00023F0200343EA05131A4DA84207D005F56C
:1037C0000065A84203D005F5E055A8420DD1CD68AB
:1037D00023F0800343EA0513124DA84223F040036F
:1037E00012D005F50065A8420ED00F4DA8420BD0AF
:1037F00005F58065A84207D005F58065A84203D08D
:1038000005F50065A84207D14D6924F4406444EAF7
:1038100085048D6944EA8504446082614A68826354
:10382000036230BD002C014000400140036A23F4D4
:1038300080730362036A30B54468C2690D6822F47C
:10384000803222F073022A438D6823F4007343EA26
:1038500005231B4DA84207D005F50065A84203D0FB
:1038600005F5E055A8420DD1CD6823F4006343EA85
:103870000523134DA84223F4806312D005F500659B
:10388000A8420ED00F4DA8420BD005F58065A84286
:1038900007D005F58065A84203D005F50065A8426C
:1038A00007D14D6924F4405444EA05148D6944EA73
:1038B00005144460C2614A68C263036230BD00BF40
:1038C000002C014000400140036A23F4805303624E
:1038D000036A30B54468C2690D6822F0807222F430
:1038E000E64242EA05228D6823F4005343EA053399
:1038F000104DA84213D005F50065A8420FD005F57C
:103900004065A8420BD005F58065A84207D005F5B3
:103910008065A84203D005F50065A84204D14D6931
:1039200024F4804444EA85144460C2614A68026415
:10393000036230BD002C014010B50123046A8B40A6
:1039400024EA03030362036A8A4042EA0301016234
:1039500010BD000010B5044601220068FFF7ECFF1F
:103960002368104A934213D002F5006293420FD0AD
:1039700002F5406293420BD002F58062934207D079
:1039800002F58062934203D002F50062934203D1B4
:103990005A6C42F400425A641A6842F001021A60FA
:1039A000002010BD002C0140FFF7D4BF036A23F4B0
:1039B00080330362036A426830B5446D0D6824F4B5
:1039C000803424F070042C438D6823F4003343EAE0
:1039D0000543114DA84213D005F50065A8420FD04C
:1039E00005F54065A8420BD005F58065A84207D0D3
:1039F00005F58065A84203D005F50065A84204D10D
:103A00004D6922F4803242EA052242604A684465E8
:103A10008265036230BD00BF002C0140036A23F4BD
:103A200080130362036A30B54468426D0D6822F06A
:103A3000807222F4E04242EA05228D6823F40013EA
:103A400043EA0553104DA84213D005F50065A8427E
:103A50000FD005F54065A8420BD005F58065A8425A
:103A600007D005F58065A84203D005F50065A8429A
:103A700004D14D6924F4802444EA852444604265DD
:103A80004A68C265036230BD002C014010B50423B2
:103A9000046A8B4024EA03030362036A8A4042EA11
:103AA0000301016210BD10B5044604220068FFF74F
:103AB000EDFF23685A6C42F400425A641A6842F0DF
:103AC00001021A60002010BD38B590F83830012B83
:103AD00004460D464FF002007BD00123082A84F8EB
:103AE000383084F839003CD013D84AB3042A6AD15C
:103AF0002068FFF74DFE236829699A6942F4006245
:103B00009A619A6922F480629A619A6942EA012272
:103B100025E0102A36D0142A44D00C2A53D120682C
:103B2000FFF7D2FE23682969DA6942F40062DA619C
:103B3000DA6922F48062DA61DA6942EA01221FE07E
:103B40002068FFF7D1FD23689A6942F008029A6164
:103B50009A6922F004029A6199692A690A439A6172
:103B600031E02068FFF762FE2368DA6942F008025C
:103B7000DA61DA6922F00402DA61D9692A690A4352
:103B8000DA6120E02068FFF711FF23685A6D42F0E8
:103B900008025A655A6D22F004025A65596D2A6965
:103BA0000A430FE02068FFF739FF236809695A6D5F
:103BB00042F400625A655A6D22F480625A655A6D69
:103BC00042EA01225A650123002084F8393084F842
:103BD000380038BD70472DE9F04104460E46904646
:103BE0001D46FEF7DBF90746B8F1000F35D1226814
:103BF000D36936EA03030ED0691CF9D07DB1FEF714
:103C0000CDF9C01B8542F2D209E06B1C06D1D36905
:103C100036EA0303F9D00020BDE8F081C5B9236876
:103C20001A6822F080021A601A6822F020021A60D4
:103C30001A6822F480721A609A6822F001029A606F
:103C40000320002384F8690084F86830BDE8F0811F
:103C5000FEF7A4F9C01B8542E1D32268D7E7000034
:103C600038B5044605682269A168C369286811430C
:103C700062690A4342EA0301684A02400A432A6031
:103C80006A68A06922F44051E2680A436A60AA683F
:103C9000216A22F4306201430A43AA60604A9542D5
:103CA0000AD102F558425F49126B02F00302B3F5E4
:103CB000004F8A5C4BD084E05B4A95420ED102F5FE
:103CC000E632126B02F44032B2F5803F57D035D95C
:103CD000B2F5003F5DD0B2F5403F36E0534A954221
:103CE0000ED102F5E432126B02F44022B2F5802FBD
:103CF00045D023D9B2F5002F4BD0B2F5402F24E0A8
:103D00004B4A95420ED102F5E232126B02F4401298
:103D1000B2F5801F33D011D9B2F5001F39D0B2F5FA
:103D2000401F12E0434A95423ED102F5E032126B49
:103D300002F44002B2F5800F21D001D882B133E005
:103D4000B2F5000F25D0B2F5400F12D02CE0082AB2
:103D50002DD8DFE802F0080B112C172C2C2C210099
:103D6000B3F5004F36D1FEF7EBFE0DE0FEF700FF96
:103D70000AE0B3F5004F39D160682F4B0FE0B3F57F
:103D8000004F39D1FFF7FCF940006368B0FBF3F353
:103D900007E0B3F5004F37D160684FF48033B3FBD1
:103DA000F0F39BB2002004E0B3F5004F34D10120C2
:103DB0000023C3F34201226823F00F030B43D360B7
:103DC00038BD082A28D8DFE802F005081127172790
:103DD00027271F00FEF7B4FE10E0FEF7C9FE636858
:103DE000B0FBF3F00E4B80B2D86013E06268134B67
:103DF000B3FBF2F39BB20CE0FFF7C2F96368B0FBD0
:103E0000F3F080B2E86005E062684FF40043B3FB72
:103E1000F2F3EB60002038BD012038BDF369FFEFFD
:103E2000003801407700010800440040004800408D
:103E3000004C0040005000400024F40000127A00C2
:103E4000436ADA0710B506D50468626822F40031C7
:103E5000826A0A4362609C0706D50468626822F49D
:103E60008031C26A0A436260590706D504686268F5
:103E700022F48021026B0A4362601A0706D50468A7
:103E8000626822F40041426B0A436260DC0606D598
:103E90000468A26822F48051826B0A43A2609906EA
:103EA00006D50468A26822F40051C26B0A43A260DE
:103EB0005A060FD50168046C4A6822F48012224326
:103EC000B4F5801F4A6005D14A6822F4C004426CF0
:103ED00022434A601B0606D501684B6823F4002282
:103EE000836C13434B6010BD03681B6800221907E5
:103EF00010B5044680F86A2004D423681B685B0769
:103F000014D509E06FF07E434FF40011FFF763FE14
:103F10000028F2D0032010BD6FF07E4300224FF442
:103F200080012046FFF757FE0028F3D1012300202F
:103F300084F8693084F8680010BD10B5044640B3B9
:103F400090F869300BB9FFF745FE2268022384F828
:103F50006930136823F0010313602046FFF780FEE9
:103F6000012816D0636A13B12046FFF769FF236862
:103F70005A6822F490425A609A6822F02A029A60A3
:103F80001A6842F0010220461A60BDE81040FFF7AF
:103F9000ABBF012010BD000030B50C4CA268A46876
:103FA000B4F1006F13460CD1131F094C094A53F8A2
:103FB000045F42F8045FA242F9D1044A4FF0005373
:103FC0009360103043F8201030BD00BF00ED00E0DA
:103FD00090010020FCFFFF1F38B5114B1A68D16813
:103FE00011F0020F1C4604D06FF00203136101F0C0
:103FF000A3F92368DA68520711D56FF00402094D5E
:104000001A615C6A2B68E31AB3F57A7F07D3FDF770
:10401000BDFF034B2C601B6804F57A729A6338BDB0
:104020000C0D0020080D002038B51F4B1F4CDA691D
:1040300042F00102DA611A6942F001021A611A695A
:1040400022F001021A614FF0804323604FF0FF33EA
:10405000E360174B174A1B68B3FBF2F30025013BE3
:10406000204663602561A5606561FFF711FB124979
:104070001C20FFF791FF114B4FF080521A60294628
:104080002046FFF791FC04212046FFF78DFC2368B2
:104090000B495A6A0A6002F57A729A63DA6842F04A
:1040A0000402DA60284638BD001002400C0D0020E2
:1040B000B801002040420F00D93F000800E100E0B5
:1040C000080D00207FB50F230193022100234FF438
:1040D000806201A80291039304920593FEF7B4FB5A
:1040E000B0FA80F0400907B05DF804FB104B1149AD
:1040F0005868114A00F00C00042810B50DD00828AB
:104100000BD158685C68DC6AC0F38340023004F06D
:104110000F040134B2FBF4F242430A605B68074AC1
:10412000C3F30313D25C0B68D3400B6010BD00BF18
:1041300000100240B801002000127A007B00010844
:1041400010B58AB00123009300B105230193022327
:1041500006934FF48033079300244FF4E01368462E
:1041600009940893FEF71CFD10B9FFF7ABFF00E0C0
:1041700020460AB010BD10B58AB003231022009368
:1041800004920123022203930024069209934FF420
:1041900000424FF460136846019407920893FEF7BB
:1041A000FFFC10B9FFF78EFF00E020460AB010BDFB
:1041B00008B50120FFF7C4FF30B9FFF7C1FF18B9F8
:1041C000FFF7D9FF00B9FEE708BD00001D4AD2F88D
:1041D000883010B543F470031B4CC2F88830236854
:1041E00043F0010323606168184B0B406360236850
:1041F00023F0847323F480332360236823F4802323
:104200002360636823F4FE036360E36A23F00F0313
:10421000E362216B0E4B0B4023630023A3604FF03E
:10422000006393600B4B0C4A1A60FDF79DFEFFF78D
:10423000BFFF236943F001032361236923F00103D6
:10424000236110BD00ED00E0001002400CC07FF8BB
:10425000CCFC00FFB801002000127A0010B5044623
:1042600086B018220021684605F0D8FB254BA168CE
:1042700022681A6001390122042301920293112954
:104280003DD8DFE801F0090B0D2A0F11131517199E
:104290001B1D1F212325272900921FE002231CE05C
:1042A00003231AE0052318E0062316E0072314E091
:1042B000082312E0092310E00A230EE00B230CE090
:1042C0000C230AE00D2308E00E2306E00F2304E090
:1042D000102302E0112300E01223009369460948ED
:1042E000FEF742F80748FDF7C1FF0A210548FDF730
:1042F000FFFF20B90348FEF731F880B200E000204C
:1043000006B010BD480D002038B50D4604462949B9
:10431000284600F095FF27492060284600F0ACFFB2
:10432000C0F3C320A0602349284600F04DFF236856
:104330002571B3F1A04F01D11F4903E01F4A9342F9
:1043400008D11F490A68002A33D11E48426942F049
:1043500080520EE01C4A934201D11C4903E01C4AE2
:10436000934209D11B490A681ABB1648426942F0B8
:104370000052426101220A601748042203604FF490
:10438000003343604261002301228360C360036104
:104390008361C361026243628362C36203634363F6
:1043A0008363FDF765FE20B10C48BDE8384000F09E
:1043B000BDBE38BD64050108A00D002000010050FD
:1043C0009C0D00200010024000040050980D0020B9
:1043D00000050050940D0020480D00208B000108BE
:1043E00008B5FFF73BFFC0F3032343EA001080B298
:1043F00008BD10B50021044604F00F0400F0A2F936
:104400000120A04010BD70B504464B1C0E46217023
:1044100010D0C1F3031000F04FF905463046FFF706
:10442000E8FF05F11003A36005F118031A35606079
:10443000E360256170BD90F9000000F0A7B9012983
:1044400090F9000018BF002100F07CB9F8B54C23AA
:10445000144E584300F11C0434440F460025064412
:10446000BD421DD00121336801FA05F21A4214D071
:104470000D4AA369506901FA03F303420DD0D4F841
:1044800000E0536154F8180C38B1DEF810201342E4
:10449000064B08BF02211B68984701350434DFE74B
:1044A000F8BD00BFA40D002000040140B80F00209B
:1044B00001210020FFF7CABF01210846FFF7C6BF50
:1044C00001210220FFF7C2BF01210320FFF7BEBF79
:1044D00001210420FFF7BABF05210846FFF7B6BF48
:1044E00006210846FFF7B2BF2DE9F74F9B464B1C4C
:1044F00007460E46914660D001F00F0808F1FF33E1
:10450000C1F303100E2B09D8DFE803F00C101418C8
:104510001C1C1C1C1C20202020202000294B0024B7
:10452000062516E0284B0124072512E0274B02241C
:1045300008250EE0264B032409250AE0254B042418
:104540000A2506E0244B0524172502E0234B062408
:104550002825019300F0B0F807218246304600F08C
:10456000F1F8019B28461946FFF716FD680905F08A
:104570001F0201231A4903FA02F241F820203D707C
:10458000184A19493E734C25654352F828604A5928
:104590007C60B34013430020B8604B51132303FBEE
:1045A000046401EB8403C3F804B0C3F81CA0C3F88F
:1045B00034800E4BC3F8009000E0084603B0BDE81D
:1045C000F08F00BFB1440008B9440008C14400089E
:1045D000C9440008D1440008D9440008E144000857
:1045E00000E100E0A4000108A40D0020B80F0020A5
:1045F000F8B54268124B054690F90C0000F00F0127
:104600004C2453F821300F495443012606FA03F78E
:104610000E5926EA07060E51132404FB023301EB60
:104620008302002454609A1D0C3301EB820201EBDB
:10463000830354605C60214600F084F8AC60F8BDF0
:10464000A4000108A40D0020A2B1012905D18368AE
:10465000023B012B08D981601EE002291FD183682B
:1046600023F00203012B03D103238360082117E009
:10467000816007E0012907D18368023B012B0DD837
:104680000223836007210BE0022908D1836823F00D
:104690000203012B02D18360062101E082600C211C
:1046A00090F90C0000F04EB808B5FFF71FFDBDE80B
:1046B0000840FDF759BC000008B505282FD8DFE8F1
:1046C00000F0030B12192027174A536943F40033F3
:1046D00053614FF0904008BD134A1448536943F4A6
:1046E0008023536108BD104A1148536943F40023E5
:1046F000536108BD0C4A0F48536943F4801353615A
:1047000008BD094A0C48536943F40013536108BDBE
:10471000054A0A48536943F48003536108BD0848B9
:1047200000F004FD002008BD001002400004004815
:1047300000080048000C0048001000480014004821
:10474000E400010830B5054687B0C0F303100C46FD
:1047500005F00F05FFF7B0FF012304F00F0203FA85
:1047600005F5094B019553F822300293C4F3021367
:104770000393C4F3C314032301A904930594FDF721
:104780008DFF07B030BD00BF0801010838B500F04B
:104790000F05C0F303100C46FFF78EFF6900C268D7
:1047A00003238B4022EA0303032CC360C36828BFA2
:1047B00000248C401C43C46038BD000030B507EEB7
:1047C000101A264B02681A60B5EEC07AF1EE10FAA4
:1047D00089B0054609D4F7EE007AB4EE677AF1EEB7
:1047E00010FAC8BFB0EE677A01E09FED1D7AD5EDF3
:1047F000027AF8EE677A002367EE877A03930493D0
:104800000593069307932B69FCEEE77A6022013B40
:10481000C5ED037A0192CDED027A032B1CD8DFE8B7
:1048200003F008020406042404E0082402E00C2437
:1048300000E00024224601A90848FFF745F910B11D
:10484000084800F073FC6B690448214613B1FFF778
:104850002AF901E0FFF77EF809B030BDBC0F002057
:10486000000000003C0101088368ABB1D0ED036A91
:1048700007EE903AF8EE666AB8EE677AF7EE007ADD
:1048800086EE876AB4EEE76AF1EE10FAD4BF16EE50
:10489000100A17EE900A704700207047F8B51B4CBD
:1048A000026822600E460546FFF7DEFF116A41F2FC
:1048B00011130B40074643B9116A40F244430B40C1
:1048C0001BB9136823F001031360FFF70FFC731E7D
:1048D000E3600F4B0F4A1B68B3FBF2F3013B6360CD
:1048E0000A4800232361A360FEF7E8FE10B10A48DE
:1048F00000F01CFC39462846FFF760FF2268AE60D6
:10490000136843F001031360F8BD00BFBC0F002023
:10491000B801002040420F003C01010838B50D46A7
:1049200004462F49284600F08BFC2D49206028467C
:1049300000F0A2FCC0F3C32323612A4A2368C0F31A
:10494000C0309342606105D127498A6942F4006210
:104950008A6123E0B3F1804F05D12349CA6942F04F
:104960000102CA611AE0214A934205D11E49CA696F
:1049700042F00202CA611AE01D4A934205D102F5D3
:104980005C42936943F4005319E01A4A934205D1FB
:1049900002F55042936943F4803310E0164A934283
:1049A00005D102F54C42936943F4003307E0134A02
:1049B000934205D102F54842936943F48023936101
:1049C0002846074900F000FC00232571A360E3603E
:1049D000204644F62061BDE83840FFF75FBF00BFC6
:1049E000B8020108002C0140001002400004004001
:1049F00000340140004001400044014000480140B3
:104A00004FF47A735943FFF749BF00002DE9F04195
:104A1000294B1D688AB0002D4AD10127274E284C0A
:104A20001F60284B2360F36943F08053F361FDF767
:104A3000FBFE254B68461F601D600423009306950E
:104A40000297FEF7ADF8B04640B9336A23F44073DD
:104A500043F4807333624FF4004315E00C2368463F
:104A60000093069502950597FEF79AF810B117483E
:104A700000F05CFBD8F8203023F4407343F400735B
:104A8000C8F8203049F64043114A0D480121DB099E
:104A90001160013B00227F216260A160E36022611E
:104AA0006261A261FEF7CFFB10B10A4800F03EFB45
:104AB0000AB0BDE8F08100BF1810002000100240CD
:104AC000F80F002000280040400442425201010833
:104AD0003C0442427E010108014B1868704700BF48
:104AE0001810002010B5154C154B236090B002A98A
:104AF00000222046FEF7CCFC002201A92046FEF74A
:104B0000EBFC9DF804300D939DF80530013B0B93B1
:104B10009DF806300A939DF8073064330C939DF896
:104B20000830099310A89DF8093008939DF80A30C1
:104B300040F8243D05F056F810B010BDF80F0020E5
:104B40000028004030B589B008AB184D43F81C0D63
:104B5000174A2A60184604F081FD83698DF80830F1
:104B6000036901338DF80930C3688DF80A30436951
:104B7000643B8DF80B3083688DF80C3043688DF8FA
:104B80000D3003688DF80E3000244023224602A920
:104B900028468DF8143006940794FEF70FFC224641
:104BA00003A92846FEF79BFB09B030BDF80F002093
:104BB00000280040104B02681A6082685A60C26880
:104BC0009A600269DA6042691A6100229A6190F97A
:104BD0001920013201D1082205E090F91820013294
:104BE0000CBF04220C225A6110225A6202484FF470
:104BF00080529A63FFF7A1B938100020F8B50E462D
:104C000004464A493046154600F01AFB4849074613
:104C1000284600F015FB0146384600F0F3FA454BF4
:104C2000206098420CD1444A936943F480439361D5
:104C3000136B23F0030343F00103136300233EE0EF
:104C40003E4B98420CD13C4AD36943F40033D361C4
:104C5000136B23F4403343F48033136301232EE0BA
:104C6000374B98420CD1344AD36943F48023D36143
:104C7000136B23F4402343F48023136302231EE0C9
:104C8000304B98420CD12C4AD36943F40023D361B2
:104C9000136B23F4401343F48013136303230EE0D8
:104CA000294B98420CD1244AD36943F48013D36131
:104CB000136B23F4400343F4800313630423636002
:104CC0001A49304600F080FA1949284600F07CFA6B
:104CD000721C03D001213046FFF758FD6B1C03D036
:104CE00001212846FFF752FD4FF41653A36000231D
:104CF000E36023616361267665762046FFF75AFFFD
:104D000022680E4B9A420FD1104B01221A60104BB1
:104D100004F11805206861681A4603C20834AC42E1
:104D20001346F7D120681060F8BD00BF9804010851
:104D300034020108003801400010024000440040E5
:104D400000480040004C004000500040341000205B
:104D5000A4100020034B19604168034B43F8212045
:104D6000704700BF301000201C1000200368034A69
:104D7000D8691360C0F34010704700BF381000209E
:104D800010B5046801460846FFF7F0FF0028FAD086
:104D9000CB68A08C0BB9C0B210BDC0F3080010BD29
:104DA0000368034AD8691360C0F3C010704700BF9E
:104DB0003810002038B5056804462046FFF7F0FF9C
:104DC0000028FAD0E3680BB9C9B201E0C1F30801C9
:104DD000298538BD03681A6810B5104C22F04002CE
:104DE00023601A60C26803696261826822610722D7
:104DF00063608369E2624268E361E26000234269C2
:104E0000A3602046A3622362A2616362FEF785FB72
:104E10002268136843F04003136010BDC0100020E7
:104E20002DE9F74F0F46044634499DF93050384676
:104E300090461E4600F004FA31498146404600F093
:104E4000FFF930490190304600F0FAF92E498246C8
:104E5000284600F0F5F9019B83461946484600F0C4
:104E6000D1F959468146504600F0CCF901464846F2
:104E700000F0C8F9254B2060984205D1244A936977
:104E800043F4805393610FE0224B984204D1204AAF
:104E9000D36943F4804306E01F4B984204D11C4A77
:104EA000D36943F40043D3611449384600F08CF9C8
:104EB0001349404600F088F91249304600F084F961
:104EC0004FF4E06363600023A360E3602023A361E9
:104ED0006B1C84F81C806777A677E57704D00A49B5
:104EE000284600F071F902E04FF400736361204638
:104EF00003B0BDE8F04FFFF76DBF00BF1C05010810
:104F0000A4010108EC01010830060108003001404D
:104F10000010024000380040003C004010290CBF47
:104F20004FF470614FF4E061012A416004D0022A1D
:104F300005D03AB9826008E00021816005E0826016
:104F4000002202E0022282600122C2604269B2F5C0
:104F5000007F05D0002B14BF00224FF48022426155
:104F6000002B14BF00234FF482730361FFF732BF9D
:104F70000268354B9A423CD1344A914201DC3823D5
:104F800006E0A1F5F423A3F59073934203D83023F0
:104F90008361FFF71FBFA1F574232D4AA3F510739A
:104FA000934201D82823F3E7A1F5F413294AA3F586
:104FB0009063934201D82023EAE7A1F57413264AAF
:104FC000A3F51063934201D81823E1E7A1F5F40398
:104FD000224AA3F59053934201D81023D8E7A1F5B4
:104FE00074011F4BA1F51051994294BF082300236F
:104FF000CEE71C4A9142C2DDA1F57433903B934247
:10500000C5D9A1F5F423114AA3F590739342C9D9E8
:10501000A1F574230E4AA3F510739342CBD9A1F5E1
:10502000F4130C4AA3F590639342CDD9A1F5741300
:10503000094AA3F510639342CFD9A1F5F401A1F574
:105040009051064BD0E700BF003001401FA1070080
:105050003F420F007F841E00FF083D00FF117A00D1
:10506000FF23F4008FD0030010B50468A3689B07EA
:10507000FCD542680B4BB2F5E06F08BF21731C6092
:105080001A4618BF89B2036818BFE1609968C9075A
:10509000FCD513604268B2F5E06F0CBF187BD8688E
:1050A00010BD00BFC0100020054B186838B90122A0
:1050B0001A60044B4FF080421A60FEF7B5BF70478C
:1050C0005C1100202011002008B5044B1B680BB9AF
:1050D000FFF7EAFF4FF08043586A08BD5C110020DB
:1050E000034B1B685863DA6842F00202DA607047CB
:1050F00020110020034B1A68D36823F00203D36009
:10510000704700BF20110020024B1B686FF00202A5
:105110001A6170472011002008B572B6962000F081
:105120002BF9962000F028F9F8E700000FB407B536
:10513000054B04AA1B6852F8041BD868019205F0BD
:10514000A3F8012003F07CFF4C02002070B50E464E
:1051500004461546FFF757F9013609D020460021CD
:10516000FFF76DF929462046BDE87040FFF763B9A7
:1051700070BD38B504460D4643680AB1C26800E008
:1051800002699BB2204613800121FFF758F9294696
:105190002046BDE83840FFF74EB90022FFF7D6BFE2
:1051A00070B50E4604461546FFF72DF9013606D0B8
:1051B0002A4620460021BDE87040FFF7DABF70BDE7
:1051C0000022FFF7EDBF000010B50446013001D109
:1051D00010BD0C3191F900305A1C0BD09C42F8D113
:1051E00020468968FFF7AEFA20460021BDE810404E
:1051F000FFF7CCBA0248BDE81040FFF797BF00BFE9
:105200006C060108884208B50AD0431C07D001315A
:1052100006D00448FFF78AFF4FF0FF3008BD08466C
:1052200008BD00BF7D06010891F900305A1C05D069
:10523000834201D1486870470C31F5E71846704742
:10524000421C10B5044607D0FFF7EEFF431C04468E
:1052500002D10248FFF76AFF204610BD8E06010802
:1052600091F900305A1C05D0834201D188687047FB
:105270000C31F5E718467047421C10B5044607D0BC
:10528000FFF7EEFF431C044602D10248FFF74EFF32
:10529000204610BDAE060108064B1B6810B504463B
:1052A00003B19847044B1B681BB12046BDE8104072
:1052B000184710BDBC010020C8010020074B1B6827
:1052C00010B504461BB1984708B9FFF7E5FF044B3A
:1052D000186800B1804704B1206010BDC0010020F3
:1052E000C4010020036870B5DB6804469847636812
:1052F0005A6823681AB99B68BDE8704018475B6814
:10530000156898476368281A00285A6807DC91686E
:1053100059601B68002BEAD050689847E7E723687C
:1053200010681B69BDE87040184703685B68184740
:1053300000487047E00601080148FFF7D3BF00BFEF
:10534000E006010838B50446FFF7BEFE0546FFF744
:10535000BBFE401BA042FAD338BD000007EE100A86
:10536000DFED047A67EE277AFDEEE77A17EE900A12
:10537000FFF7E8BF002474494FF47A735843FFF7EE
:10538000E1BF08B50120FBF7BBFB322002F0EAFECB
:10539000F8E770B504460D4616460021142204F0C5
:1053A0003DFB204632462946FFF7FAFE204670BDF7
:1053B00038B50C4B1C789CB9012521460A481D7054
:1053C000FBF794F929460948FBF774F94FF0804040
:1053D000FFF7C4FF21460548BDE83840FBF76AB92E
:1053E00038BD00BF6C1100204403002034030020AE
:1053F0000C4B1A7810B5A2B90B4C01221A70FFF7AA
:10540000D7FF2369A2881A800848FFF7A7FF084B37
:1054100008481A699B881380FFF7A0FFE368A288F9
:105420001A8010BD2012002098110020000040407A
:105430003C1200200000A04070B5884D884C2B69BC
:10544000AA88884E1A802046FFF788FF012130463F
:10545000FBF775FA2046FFF781FF09213046FBF77D
:105460006EFA2046FFF77AFF00213046FBF767FA15
:105470007D4E2046FFF772FF2046FFF76FFF0121A8
:105480003046FBF717F92046FFF768FF0221304648
:10549000FBF710F92046FFF761FF00213046FBF7CC
:1054A00009F9724E2046FFF759FF2046FFF756FFD5
:1054B00001213046FBF709FA2046FFF74FFF022192
:1054C0003046FBF702FA2046FFF748FF002130463E
:1054D000FBF7FBF9664E2046FFF740FF2046FFF73B
:1054E0003DFF01213046FBF751F82046FFF736FF1C
:1054F00002213046FBF74AF82046FFF72FFF002134
:105500003046FBF743F85B4E2046FFF727FF204667
:10551000FFF724FF01213046FAF7FEFF2046FFF790
:105520001DFF02213046FAF7F7FF2046FFF716FF6E
:1055300000213046FAF7F0FF4F4E2046FFF70EFFEE
:105540002046FFF70BFF01213046FBF7CFF820463E
:10555000FFF704FF02213046FBF7C8F82046FFF7AB
:10556000FDFE00213046FBF7C1F8444E2046FFF710
:10557000F5FE2046FFF7F2FE3369B2881A80204616
:10558000FFF7ECFEF368B2881A803D4E2046FFF725
:10559000E5FE2046FFF7E2FE3369B2881A80204616
:1055A000FFF7DCFEF368B2881A80364E2046FFF71C
:1055B000D5FE2046FFF7D2FE3369B2881A80204616
:1055C000FFF7CCFEF368B2881A802046FFF7C6FECC
:1055D0002046FFF7C3FE2C4B2C4E1A699B88138084
:1055E0002046FFF7BBFE2A4BDA689B8813802046D3
:1055F000FFF7B4FE2046FFF7B1FE3369B2881A8088
:105600002046FFF7ABFEF368B2881A80214E204691
:10561000FFF7A4FE2046FFF7A1FE3369B2881A8087
:105620002046FFF79BFEF368B2881A801A4E204688
:10563000FFF794FE2046FFF791FE3369B2881A8087
:105640002046FFF78BFEF368B2881A802046FFF7EA
:1056500085FEEB68AA881A8070BD00BF3C1200204E
:10566000CDCC4C3E68030020340300205C030020B6
:105670002C03002024030020440300209811002064
:1056800070110020841100205012002024120020EC
:1056900008120020641200207812002008B5034888
:1056A00005F026FEBDE80840FFF7C6BEE806010883
:1056B000F8B52B4F2B4D2C4E00243B681B5DA3F1FE
:1056C0003001102C48D8DFE804F0090D11151947F6
:1056D0001D2023272A2D4730333B41002348FBF769
:1056E0002EF939E02248FBF701F835E02148FAF7B6
:1056F000E1FF31E02048FBF7E8F82DE01F48FAF71A
:1057000045FF29E0312B1E4B14E0312B1D4B11E0DE
:105710001D48FAF701FF1FE0312B1C4B0AE0312B2B
:105720001B4B07E0312B1B4B04E0312B1A4B01E0E4
:10573000312B1A4B0CBF1A69DA689B8813800BE077
:10574000312B0CBF3369F368B28804E0312B0CBFF6
:105750002B69EB68AA881A800134112CADD1F8BDF1
:10576000800A002064120020241200206803002018
:1057700044030020340300205C0300202C0300209D
:1057800070110020841100202403002050120020FA
:10579000081200203C1200209811002078120020EE
:1057A00008B50A48FAF79FFF0948FBF7A7F8094828
:1057B000FBF7DEF80848FBF737F80848FAF7FFFE72
:1057C0000748BDE80840FAF7C0BE00BF3403002018
:1057D0005C03002068030020440300202C03002009
:1057E0002403002008B5054C23781BB9FFF760FFA0
:1057F000FFF7D6FF0A2002F0B5FCF5E76C11002098
:1058000010B50F4C204602F0A1F80E48FAF706FF3B
:105810000D48FAF7A1FF0D48FAF798FE0C48FBF780
:105820000FF80C48FBF76BF80B48FAF755FEFBF73F
:1058300013FA204602F09FF8084B186010BD00BF15
:10584000080B002034030020440300202C03002018
:105850005C03002068030020240300207003002064
:1058600007B5FFF7CDFF2449244801F00CFF2020A5
:1058700003F0A4FB00244FF4006522462346204990
:1058800001940095064603F043FB1E4B20201E604A
:1058900003F094FB224623461B49019400950646DB
:1058A00003F036FB194B20201E6003F087FB2346D4
:1058B0000194009522461649164C174D064603F0F2
:1058C00027FB164B1E60164802F055F82368C01AD5
:1058D000A84201D9FFF78CFD114802F04CF80D4B9E
:1058E0001B68C01A0F4B984201D9FFF761FD4FF4B6
:1058F0007A7002F037FCE6E79D560008AC110020F4
:10590000E159000838120020E55700080412002071
:10591000835300087003002000C2EB0B1C12002010
:10592000080B002080841E0013B500231A46194678
:1059300000931E481E4C01F008FC012212211D4854
:10594000FFF727FD012211211B48FFF722FD01224D
:105950001F211A48FFF71DFD01221E211848FFF7DD
:1059600018FD012228211748FFF713FD01222621E7
:105970001548FFF70EFD012218211448FFF709FD15
:10598000012219211248FFF704FD012229211148A3
:10599000FFF7FFFC2D21204601F04AFE0E4A0F4979
:1059A000204602B0BDE8104003F001BB68110020A2
:1059B000AC11002070110020841100205012002032
:1059C000081200203C1200209811002064120020D0
:1059D000781200202412002094010020057600088F
:1059E00038B5084C084D094800F0B2FE30B100232C
:1059F00023702B70FBF784F9FBF7A6F9012002F066
:105A0000B1FBF0E76C110020201200207803002089
:105A100007B5002300931A461946034801F095FB89
:105A200003B05DF804FB00BF8C1200200346002287
:105A3000086818609A80704730B50139084610F838
:105A4000013F002BFBD11C460A2511F8010F68B15C
:105A5000032C12DC2E2805D1FF2B0EDC135501344C
:105A60000023F2E7303805FB0303EEE7FF2B05DCEC
:105A7000032C03DC1355012030BD002030BD000095
:105A800007B5002300931A461946034801F05DFB51
:105A900003B05DF804FB00BF901200202DE9F7432E
:105AA00005460F4601F026FC05F10804A880291DD3
:105AB000022202AD204600F035FE012325F8023D0A
:105AC00002222946204600F02DFE4FF48073022268
:105AD00029462046ADF8063000F024FE00230222BD
